:020000040800F2
:10400000988100202142000801B10008B591000804
:10401000EDB00008D964000865E500080000000064
:10402000000000000000000000000000D5D60008DD
:104030008586000800000000B3410008BDE10008CB
:104040003B4200083B4200083B4200083B4200085C
:104050003B4200083B4200083B4200083B4200084C
:10406000798A0008718B0008DD8B00083B4200084C
:104070003B4200083B4200083B4200083B4200082C
:104080003B4200083B4200083B4200083B4200081C
:10409000DD6400083B4200083B420008F18B000849
:1040A0003B4200083B4200083B4200083B420008FC
:1040B0003B4200083B4200083B4200083B420008EC
:1040C0003B4200083B4200083B4200083B420008DC
:1040D0003B4200083B4200083B4200083B420008CC
:1040E0003B4200083B4200083B4200083B420008BC
:1040F0003B4200083B4200083B4200080000000031
:104100003B420008000000003B4200083B42000820
:104110003B4200083B4200083B4200083B4200088B
:104120003B4200083B4200083B4200083B4200087B
:104130003B4200083B4200083B4200083B4200086B
:104140003B4200083B4200083B4200083B4200085B
:10415000DFF810D000F0ACFB00480047954801089C
:10416000AFF3008098810020EFF3108072B67047A3
:1041700080F31088704721484FF0FF010170002044
:1041800080F309881E48016881F308881D480121D1
:1041900001701D484FF08051016062B6FEE71A4879
:1041A0004FF080510160704717484FF08051016017
:1041B000704772B6EFF3098038B1203880E8F00F0D
:1041C00020ED108B11490968086000B51048804740
:1041D0005DF804EB0F4810490A7802700B480F494C
:1041E0000A6802601068B0EC108B90E8F00F203085
:1041F00080F309884EF0040E62B6704722ED00E0AD
:10420000800200205F02002004ED00E06802002030
:104210007DC80008560200205702002070020020CE
:104220000648804706480047FEE7FEE7FEE7FEE750
:10423000FEE7FEE7FEE7FEE7FEE7FEE711E2000825
:10424000514100082DE9F05F0546002092469B464B
:1042500088460646814640241BE02846414647469C
:10426000224600F056FA53465A46C01A914110D3DE
:1042700011461846224600F047F82D1A67EB010850
:104280004F4622460120002100F03EF817EB0009BE
:104290004E41201EA4F10104DFDC484631462A4687
:1042A0004346BDE8F09F2DE9F0410024061B25465A
:1042B00071F1000605DA01240027D0EB070067EB57
:1042C0000101161E73F1000605DA0027D2EB070282
:1042D000012567EB0303FFF7B5FF86460E46174639
:1042E0009C46AC4204D00025D0EB050E65EB0106E0
:1042F00024B10020D2EB000760EB030C704631467E
:104300003A466346BDE8F081202A04DB203A00FAF1
:1043100002F1002070479140C2F1200320FA03F31C
:1043200019439040704710B5431A934209D283183D
:10433000881803E010F8011D03F8011D521EF9D280
:1043400010BD40EA01039B0703D009E008C9121F12
:1043500008C0042AFAD203E011F8013B00F8013B3F
:10436000521EF9D210BDD2B201E000F8012B491E55
:10437000FBD270470022F6E710B513460A46044602
:104380001946FFF7F0FF204610BD30B50446002067
:10439000034600E05B1C934203D2E05CCD5C401B13
:1043A000F8D030BD2DE9FE4F804681EA0300C00FF2
:1043B0000C46009021F0004123F00045B8EB0200CC
:1043C000A94105D24046214690461C460B4602466E
:1043D00023F00040104347D0270DC7F30A00C3F372
:1043E0000A510290401A019040286BDAC3F313007F
:1043F00040F4801B0098924620B10023D2EB030AC0
:1044000063EB0B0B01985946C0F140025046FFF791
:104410007BFF06460D4650465946019A00F089F941
:1044200010EB08006141002487EA115284EAE77327
:104430001A4340D0009A62B3019A012A4FEA075208
:1044400015DC001B61EB02014FF0004202EA07524B
:10445000CDE90042001C41F5801132462B4600F0A8
:10446000C0F903B0BDE8F08F40462146F9E7001BD4
:1044700061EB0201001C41F5801300185B4120181C
:10448000A2F5001747EB030140EAD570B6196D415C
:1044900011E06D084FEA360645EAC0754FEA07524B
:1044A000001B61EB0201001C41F5801149084FEA35
:1044B00030000019514132462B4603B0BDE8F04FA1
:1044C00000F080B90098012240000023D0EB0202E6
:1044D00063EBE073009821464FEAE074B8EB00000C
:1044E00061EB0401E9E783F000435BE781F0004101
:1044F00058E72DE9FE4F81EA030404F0004421F05F
:10450000004100944FF0000B23F0004350EA0104F7
:104510005ED052EA03045BD0C3F30A54C1F30A55D8
:104520002C44A4F2F3340194A0FB0254C1F3130110
:1045300041F48011C3F3130343F4801301FB0244DD
:1045400000FB034E840A970A44EA815447EA8357E2
:10455000A4FB076802958D0A05FB07854FEA932C9B
:1045600004FB0C542705029D4FEA065847EA16370C
:10457000B5EB08056EEB070C870E920E47EA811724
:1045800042EA8312A7FB0201B6EB0B0164EB0004C5
:104590002B0D43EA0C335E1844EB1C50DA465146AF
:1045A000E7FB0201C5F313044FEA0B3343EA14534C
:1045B0004FEA0432019C43EA0603A4F10C0402947E
:1045C000009CCDE900B400F00CF903B0BDE8F08F19
:1045D00000200146F9E72DE9F04D81EA030404F0DB
:1045E000004B21F0004514464FF0000A23F0004133
:1045F00050EA050220D054EA01021DD0C5F30A5743
:104600000246C5F31303C1F31300C1F30A5640F485
:10461000801543F48013A7EB0608101BD64608F25A
:10462000FD3873EB050002D308F1010801E0921890
:104630005B41B8F1000F03DA00200146BDE8F08DC0
:1046400000204FF48011064684460EE0171B73EBE2
:10465000050705D3121B63EB050306434CEA010C67
:1046600049084FEA300092185B4150EA0107EDD14A
:1046700052EA030012D082EA040083EA05010843EB
:1046800005D0101BAB4106D20122002306E0002218
:104690004FF0004302E06FF0010253101AEB0600E6
:1046A0004CEB085110EB0A0041EB0B01BDE8F04D5B
:1046B00000F088B800F0004230F000400AD0C10D90
:1046C00001F56071C0F3160042EA0151C2084007CB
:1046D0001143704700200146704701F0004330B499
:1046E00021F0004150EA010206D00A0DA2F56072E5
:1046F000C1F31301002A02DC30BC00207047440FD4
:1047000044EAC104C100E01830BC00EBC25000F024
:1047100022B8202A04DB203A21FA02F00021704757
:1047200021FA02F3D040C2F1200291400843194619
:104730007047202A06DBCB17203A41FA02F043EA01
:10474000E07306E041FA02F3D040C2F1200291404A
:104750000843194670470029A8BF7047401C49000C
:1047600008BF20F00100704710B4B0FA80FC00FAD6
:104770000CF050EA010404BF10BC704749B1CCF101
:10478000200421FA04F411FA0CF118BF012121438D
:104790000843A3EB0C01CB1D4FEA00614FEA102048
:1047A00042BF002010BC704700EBC35010440029EA
:1047B000A4BF10BC7047401C490008BF20F0010096
:1047C00010BC704710B5141E73F1000408DA401CC9
:1047D00041F1000192185B411A4301D120F0010020
:1047E00010BD2DE9F04D92469B4611B1B1FA81F210
:1047F00002E0B0FA80F220329046FFF785FD0446D1
:104800000F4640EA0A0041EA0B0153465A46084364
:1048100013D0114653EA010019D0C8F140025046A6
:10482000FFF777FF05460E46504659464246FFF7CA
:104830006BFD084305D0012004E020463946BDE861
:10484000F08D0020054346EAE0762C4337430A9872
:104850006305E40AA0EB08000022FD0A44EA47547D
:104860000A3002D500200146E9E701051019694127
:10487000DDE9084500196941BDE8F04DA2E70000F7
:1048800030B5041E71F1000404DB4FF000444042D7
:1048900064EB0101141E73F1000405DB1C464FF0AC
:1048A0000043524263EB04038B4208BF824230BD97
:1048B000064C074D06E0E06840F0010394E807006D
:1048C00098471034AC42F6D3FFF746FC087B01084A
:1048D000287B01082DE9F04D00231A461B1A8A4156
:1048E00003DB00200146BDE8F08DC1F30A52C1F39D
:1048F000130141F480154FF0000BD10702D10018CD
:104900006D41521E0027044640F2FF11384601EB6C
:10491000620A3E468046024600204FF48011FFF7AF
:10492000F8FEC2197141BB1846EB0100B4EB030C51
:1049300075EB000C04D3E41A65EB000517460E4630
:10494000241908F101006D4180463428E3DDF9198E
:1049500046EB0600091BA84103D24FF0FF32134675
:1049600001E0002213461BEB070046EB0A51BDE8AD
:10497000F04DFFF727BF70B58C1810F8015B15F0EC
:10498000070301D110F8013B2A1106D110F8012BC1
:1049900003E010F8016B01F8016B5B1EF9D12B07E6
:1049A00005D40023521E0DD401F8013BFAE710F89C
:1049B000013BCB1A921C03E013F8015B01F8015B89
:1049C000521EF9D5A142D8D3002070BD2DE9F04187
:1049D00007460D4616462EB12946384604F02AFAF7
:1049E000044604E02946384604F06EFA0446002CDA
:1049F00039D016B32068007F70B9206890F8230082
:104A000050B91A488088A84206DD0120216881F843
:104A100023002068858426E0206890F8230038B1C0
:104A20000020216881F82300294620680AF0F8F95F
:104A3000294620680AF0F4F915E02068007F002874
:104A400011DD2068407F10B92068808A06E0206868
:104A5000801C2168497F491E30F81100054629460F
:104A600020680AF0DDF9BDE8F08100007C0000203C
:104A700070B504460D46B4F80760607A0B2805D17E
:104A80002A462146304600F0DDF81AE0607A0D280B
:104A900015D10C48C088B04205D12A46214630467F
:104AA00000F07CF804E00748406A401C0549486271
:104AB000002003F0B3FC002003F007FC01E008F045
:104AC000B9FB70BD1025002010B5044602480460F3
:104AD00008F0B0FB10BD0000300000202DE9F041CF
:104AE00004460F4601202849488008460069401CBA
:104AF0000861B4F80500C88004F05FFA234A03C2D5
:104B00002348B4F80510A0F8051004F043F98046D6
:104B10001E49D1E900514246284609F0FFF91B4AD7
:104B2000C2E902011046D0E900532A4618480A306B
:104B300004F0F7F81548D0E902532A4614480F301C
:104B400004F0EFF800221249162003F072FD012252
:104B50000021162003F080FD0B484069401C0A49E3
:104B60004861012003F0C2FC10B1002003F0BEFC3C
:104B70000220054948800A20064908600648006866
:104B800007F0EAFABDE8F081102500205027002048
:104B9000500000203800002024000020F0B58DB027
:104BA00005460E461746002405202249488008463F
:104BB000006A401C086204F016FA1F4AC2E90401A8
:104BC00004F0FBF91C4AC2E90A0111461B4804F033
:104BD00082F8194918311948401D04F07CF816492B
:104BE000203116480A3004F076F80AA8202212492B
:104BF000103108906846FFF796FB0F480FC80BF07E
:104C00009FF804462CB10E490A98088003F01CFF57
:104C100004E00848006B401C064908632246084827
:104C200001882846FFF7D2FE0020024948800DB0D7
:104C3000F0BD00001025002048250020DA240020C7
:104C40002C0000202DE9F04104460D4616460320B5
:104C50002449488008468069401C88610846C48011
:104C60002146214809F077F9204609F07BF904F044
:104C7000A4F91E4AC2E902010F211B4800F03EF8C8
:104C8000002003F0B0FB41F2883003F0C7FB174867
:104C9000D0E902204FF01673D21840F1000001064F
:104CA00041EA1227384603F06BFB032003F01EFC99
:104CB00010B1022003F01AFC04200A4948800220A7
:104CC0000B4908600B48006807F046FA112E03DB19
:104CD000A87B0949087002E0032007490870BDE875
:104CE000F0810000102500206600002048250020EB
:104CF00038000020240000202E00002070B504465B
:104D00000D462946204603F0A9FE0348C069401C11
:104D10000149C86170BD00001025002010B504F0E5
:104D200079F908490880088803F009FB05480188DB
:104D3000054809F0E7F803480188044809F0E2F85B
:104D400010BD00001025002050000020660000204B
:104D50000146002200234878012804D04878022820
:104D600001D00020704709480078012805D1084883
:104D7000B0F900200748B0F900304878012801D187
:104D80008A8000E08B800120ECE7000050010020C9
:104D9000520100205401002010B518211748FFF7D8
:104DA000E9FA18211648FFF7E5FA18211548FFF728
:104DB000E1FA0120144908701449052005F068FB48
:104DC0001349082005F064FB1249082005F0C6FBD2
:104DD0001048008840F6B831884202DA08460D498A
:104DE000088000200C4908800C4908800C490860A4
:104DF00005200C490870012010BD0000B23A0020C7
:104E0000CA3A0020E23A0020500100204801002068
:104E1000FA3A0020580100206001002062010020C1
:104E20005C0100205A0100209CB00020069003463F
:104E300002466521009002A808F07EFF0420019040
:104E400005980090002002A90EC908F019FC4FF443
:104E50007A7007F015FD0020034602466521009098
:104E600002A808F069FF0420019005980090002036
:104E700002A90EC908F004FC4FF47A7007F000FD97
:104E80000020034602466521009002A808F054FF66
:104E90000420019005980090002002A90EC908F096
:104EA000EFFB40F6B83007F0EBFCBFE00A2007F05C
:104EB000E7FC5F48006800285ED15E480088401C1F
:104EC0005C49088008460088B0F5C87F11DB0020E7
:104ED0000880034602466421009002A808F02CFFD7
:104EE0000420019005980090002002A90EC908F046
:104EF000C7FB04F0A3F800F0040004281BD10A202B
:104F000001F02EFD4C480088401C4B4908800846A3
:104F10000088FA280FDB002008800698C1B202A89A
:104F200002F0A2FB0420019005980090002002A945
:104F30000EC908F0A5FB04F081F800F0080008286D
:104F40001AD13E480088401C3C4908800846008829
:104F5000C82811DB00200880034602466521009026
:104F600002A808F0E9FE04200190059800900020B6
:104F700002A90EC908F084FB2D4800680A2805D94B
:104F80002B4800680A382A4908600EE000202849AA
:104F9000086006A9062005F0E1FA0698032804D166
:104FA0000020069006A905F0D9FA214800680A28D1
:104FB0003CD104F043F800F0040004280AD107A90A
:104FC0000D2007F0A7FA9DF84C00082802D10D200B
:104FD00007F0CEFA04F032F800F00100A8B107A9FA
:104FE000062007F097FA9DF84C00082802D1062009
:104FF00007F0BEFA07A90A2007F08CFA9DF84C00CA
:10500000082802D10A2007F0B3FA04F017F800F0DC
:10501000080008280AD107A9072007F07BFA9DF8A5
:105020004C00082802D1072007F0A2FA3EE7000052
:105030005C01002068010020660100206A01002058
:105040002DE9F04F8BB0FF200A90FF27FF254FF08E
:1050500000084FF000094FF0000A4FF0000B00204D
:1050600001900026FE48C07800F00300032803D01A
:1050700000200BB0BDE8F08FFA480078002874D00B
:105080000020F849087006A807AB08AA02A90090FA
:1050900004A805F02FFE09900998002865D1F24870
:1050A000007810B90120F04908709DED070ADFED86
:1050B000EF0A20EE200ABDEEC00A10EE100A00B280
:1050C000EB49898AEA4A22F811001046808A401C7E
:1050D000114688820846808A0A287BD1E5480078F4
:1050E00010B10020E34908700020E14988820A21BC
:1050F000DF4803F0CFFD01900198C11700EB51711B
:10510000C9100CB2201E01DB014600E04142D44A26
:105110009288914204DD49F69910D549C8827FE111
:10512000D5480480D548B0F86E0100B2A0426EDCCC
:10513000D2480068012836D000252DE0D04830F84C
:10514000150000B2A04225DCCD4830F815000FFA5A
:1051500080F8CA48001D30F915A0001F0068401CE7
:10516000691CB1EB500F01D31CE0E7E1C448691C96
:1051700030F8110000B2A0420CDB0A95681C87B21F
:10518000BF4830F811000FFA80F9BC48001D30F913
:1051900011B007E0681C85B2B8480068401CB5EB48
:1051A000500FCBD306E000200A90B448B0F86E014F
:1051B0000FFA80F80A98A0B9B0480068012810D109
:1051C000A4EB080004B2A6488088A04203DBA848EC
:1051D000C48225E129E1A248808800B2A449C8829E
:1051E0001EE1A6480068401C0A99B1EB500F0FD28F
:1051F000ABEB0A00A4EB080100FB01F6A9EB0800E9
:1052000096FBF0F6564430B29949C88208E146E070
:1052100093488088A04235DD9848B0F86E0100B20E
:10522000A0422FDC954800684108954830F81100ED
:105230000FFA80F9914800680121C1EB50019048B4
:1052400030F811000FFA80F88C48006841088B484C
:10525000001D30F911B0001F00680121C1EB5001A1
:105260008648001D30F911A0ABEB0A00A4EB080141
:1052700000FB01F6A9EB080096FBF0F6564430B2AD
:105280007B49C8827A48B0F91600754989888842F6
:105290009FDB7348808800B27549C882C0E07748B8
:1052A000B0F86E0100B2A04272DD744800680128B7
:1052B00037D072480068401CC0F34F052CE070489E
:1052C00030F8150000B2A04224DC6D4830F815001B
:1052D0000FFA80F86948001D30F915A0681E67496B
:1052E0000968491CB0EB510F01D2002701E0681E8C
:1052F00087B2634830F8170000B2A0420ADB0A9573
:105300005F4830F817000FFA80F95C48001D30F94B
:1053100017B005E0681C85B258480068A842CED88E
:1053200005E000275548B0F86E010FFA80F9AFB9D3
:1053300052480068012811D1A4EB090004B2484882
:1053400080884042A04202DC4948C48268E0444868
:105350008088404200B24649C88261E04748006800
:10536000401CB7EB500F03D344480068B84200D844
:105370007FB9AAEB0B00A4EB090100FB01F6A8EB37
:10538000090096FBF0F65E4430B23949C88247E026
:1053900042E0334880884042A0422EDC3748B0F8D3
:1053A0006E0100B2A04228DB34480068801E3449F8
:1053B00031F810000FFA80F930480068401E31F8CB
:1053C00010000FFA80F82D480068801EA1F5B57115
:1053D00031F910B0081F0068401E31F910A0AAEB87
:1053E0000B00A4EB090100FB01F6A8EB090096FBFA
:1053F000F0F65E4430B21E49C8821D48B0F916006E
:1054000017498988494288420ADA1548808840420B
:1054100000B21749C88203E049F699101449C882BE
:1054200013491631032005F099F89DED080ADFEDC8
:105430000F0A20EE200ABDEEC00A10EE100A00B2DC
:105440001049898A0F4A22F811001046808A401CB0
:10545000114688820846808A0A286FD1054813E0E1
:1054600048010020F4010020560100200000C8423D
:10547000B23A00205701002052010020FA3A0020E1
:10548000683C0020CA3A0020007810B10020F3499F
:1054900008700020F24988820A21F14803F0FAFBE3
:1054A00001900198C11700EB5171C9100CB2201E78
:1054B00001DB014600E04142EA4AD288914204DD24
:1054C00049F69910E649C882C0E1E7480480E748F8
:1054D000B0F8460400B2A04275DCE448D0F8D80227
:1054E000012836D000252CE0E14830F8150000B244
:1054F000A04224DCDE4830F815000FFA80F8DD48C1
:1055000030F915A0D948D0F8D802401C691CB1EB7D
:10551000500F00D31CE0D648691C30F8110000B2CF
:10552000A0420CDB0A95681C87B2D14830F8110004
:105530000FFA80F9CF4830F911B009E08BE1681C0F
:1055400085B2CA48D0F8D802401CB5EB500FCBD377
:1055500006E000200A90C548B0F846040FFA80F82B
:105560000A98A0B9C148D0F8D80201280FD1A4EBFD
:10557000080004B2BB48C088A04202DBB848C4821D
:1055800064E1B848C08800B2B549C8825EE1B74856
:10559000D0F8D802401C0A99B1EB500F1AD2ABEBED
:1055A0000A00A4EB080100FB01F6A9EB080096FB3A
:1055B000F0F65644AB48C08831B2884204DB30B2C2
:1055C000A749C88242E15CE0A648C08800B2A4496D
:1055D000C8823BE1A348C088A04237DDA348B0F8A9
:1055E000460400B2A04231DCA048D0F8D8024108FD
:1055F0009F4830F811000FFA80F99C48D0F8D80283
:105600000121C1EB50019A4830F811000FFA80F8DF
:105610009648D0F8D8024108964830F911B093481E
:10562000D0F8D8020121C1EB5001924830F911A005
:10563000ABEB0A00A4EB080100FB01F6A9EB0800A4
:1056400096FBF0F6564430B28549C8828448B0F9DA
:1056500016008449C988884292DB8148B0F9161047
:105660008048C08800F5FA70814205DC7D48C0881A
:1056700000B27B49C882E9E049F699107849C882AE
:10568000E4E07A48B0F8460400B2A0427DDD7748F5
:10569000D0F8D802012838D07448D0F8D802401C7D
:1056A000C0F34F052BE0724830F8150000B2A0425D
:1056B00023DC6F4830F815000FFA80F86D4830F998
:1056C00015A0681E6949D1F8D812491CB0EB510FDA
:1056D00001D2002701E0681E87B2654830F8170044
:1056E00000B2A04209DB0A95614830F817000FFAB2
:1056F00080F9604830F917B006E0681C85B25B4855
:10570000D0F8D802A842CED805E000275748B0F814
:1057100046040FFA80F9B7B95448D0F8D8020128E6
:1057200011D1A4EB090004B24E48C0884042A04207
:1057300002DC4B48C48289E04A48C088404200B23B
:105740004749C88282E04948D0F8D802401CB7EBEC
:10575000500F04D34548D0F8D802B84200D8E7B972
:10576000AAEB0B00A4EB090100FB01F6A8EB090072
:1057700096FBF0F65E443B48C088404231B2884216
:1057800004DC30B23649C88260E05BE03548C0884E
:10579000404200B23249C88258E03248C088404294
:1057A000A04231DC3148B0F8460400B2A0422BDB05
:1057B0002E48D0F8D802801E2D4931F810000FFA7B
:1057C00080F92A48D0F8D802401E31F810000FFAAC
:1057D00080F82648D0F8D802801E264931F910B04A
:1057E0002248D0F8D802401E31F910A0AAEB0B00D5
:1057F000A4EB090100FB01F6A8EB090096FBF0F60B
:105800005E4430B21649C8821548B0F916001549F1
:10581000C9884942884219DA1148B0F9161011486E
:10582000C0884042A0F5FA70814206DB0D48C0886E
:10583000404200B20A49C88208E049F69910084976
:10584000C88203E049F699100549C8820449163117
:10585000042004F083FE01200BE400005701002027
:10586000CA3A00204801002054010020FA3A0020E2
:10587000403F0020D63D002008B504F091FD04F023
:10588000ADFFFFF789FA00200090694604F066FE3C
:10589000C82006F0F5FF04E00A2006F0F1FFFFF74C
:1058A000CFFBF9E700BF0AF0F7F975E003F0A0FAC3
:1058B000012821D1410239480EF0AEFE4FF4C870E4
:1058C00006F0DEFF4FF4007134480EF0A3FEC8204E
:1058D00006F0D6FF4FF4007130480EF09DFEC82050
:1058E00006F0CEFF4FF400712C480EF093FE4FF4FB
:1058F000C87006F0C5FF4CE003F07AFA112836D1E3
:105900002748008840B14FF4007124480EF084FE0F
:105910002348008806F0B4FF2248008810B92048C8
:10592000008840B94FF400711C480EF073FE1D480A
:10593000008806F0A5FF1A48008840B14FF40071B6
:1059400016480EF069FE1648008806F099FF1548C3
:10595000008810B912480088D8B94FF400710F4878
:105960000EF058FE0F48008806F08AFF11E003F0A1
:105970003FFAFF2805D14FF4007108480EF04CFEA5
:1059800007E04FF4007105480EF044FE642006F075
:1059900077FF0A2006F074FF88E700000008014046
:1059A000EE000020EC0000201CB501F0D5FF012026
:1059B00008F07EFD022008F07BFD00BF2EE203F020
:1059C0002DFA00287ED1FA48008810280AD100213B
:1059D000012008F07EFD02200AF026FFC82006F014
:1059E0004FFF01E2F2480088112812D101200AF08D
:1059F00053FF022008F05CFDC82006F041FF0120A3
:105A000008F056FD022008F053FDC82006F038FFCC
:105A1000E7E7E7480088122813D10021012008F0A9
:105A200058FD02200AF000FFC82006F029FF0120DF
:105A300008F03EFD022008F03BFDC82006F020FFE4
:105A4000CFE7DB48008821281ED1DA48008848B11A
:105A500001200AF021FF022008F02AFDD548008825
:105A600006F00EFFD348008818B1D34800880028FC
:105A7000B7D0012008F01CFD022008F019FDCE4827
:105A8000008806F0FDFEACE7C9480088222821D135
:105A9000C848008850B10021012008F01AFD0220FA
:105AA0000AF0C2FEC348008806F0EAFEC14800883A
:105AB00018B1C1480088002893D0012008F0F8FCF4
:105AC000022000E0B9E008F0F3FCBB48008806F0D3
:105AD000D7FE86E7B648008823281ED1B54800883F
:105AE00048B101200AF0D8FE022008F0E1FCB148DC
:105AF000008806F0C5FEAF48008818B1AE4800889F
:105B0000002885D0012008F0D3FC02200AF08CFE8A
:105B1000A948008806F0B4FE63E7A548008803287A
:105B20008ED0A3480088012809D10AF0B5FE0021D3
:105B3000022008F0CEFCC82006F0A2FE51E79C48E7
:105B40000088022814D101200AF0A6FE00210220BC
:105B500008F0BFFCC82006F093FE0021012008F0E9
:105B6000B8FC02200AF060FEC82006F089FE38E783
:105B70008F480088FE280DD140F6FF71012008F003
:105B8000A8FC40F6FF71022008F0A3FCC82006F034
:105B900077FE26E786480088FD280DD140F6FF7184
:105BA000012008F096FC40F6FF71022008F091FCFD
:105BB000C82006F065FE14E77D480088FC2820D147
:105BC00001200AF069FE0021022008F082FC4FF457
:105BD000FA7006F055FE01200AF042FE02200AF09B
:105BE0003FFE4FF4FA7006F04BFE0021012008F052
:105BF00070FC02200AF018FE4FF4FA7006F040FE26
:105C0000EFE66B48008888B9012008F051FC0220BB
:105C100008F04EFC04F0D8FA012001F0E7FE022063
:105C200001F0E4FEC82006F02BFEDAE6012008F0C1
:105C30003FFC022008F03CFCD3E603F0EFF801281B
:105C400095D15B480088012820D15A48008858B176
:105C50005A4802785A4801785A4800780AF02EFCCF
:105C60005448008806F00CFE5248008818B152488B
:105C7000008800288DD0022008F01AFC012008F0CE
:105C800017FC4D48008806F0FBFDAAE6484800884E
:105C9000022877D14C480078012874D14B4800780D
:105CA000012871D143480088002884D043480278F5
:105CB00043480178434800780AF00AFE3D480088CE
:105CC00006F0DEFD022003F011FB012800D1F4E311
:105CD0003A4802783A4801783A4800780BF082F95D
:105CE0003448008806F0CCFD022003F0FFFA0128BA
:105CF00000D1E2E331480278314801783148007838
:105D00000BF0E0FA2B48008806F0BAFD022003F001
:105D1000EDFA012800D1D0E328480278284801781C
:105D2000284800780BF08AFB2248008806F0A8FD7E
:105D3000022003F0DBFA012800D1BEE31F480278FD
:105D40001F4801781F4800780BF0D6FB19480088DF
:105D500006F096FD022003F0C9FA012800D1ACE359
:105D60001648027816480178164800780BF080FC37
:105D70001048008806F084FD022003F0B7FA0128DD
:105D800003D19AE3DDE1A2E02FE00C4802780C4851
:105D900001780C4800780BF0C9FC0648008806F032
:105DA0006FFD022003F0A2FA012811D185E3000063
:105DB000D6000020E8000020E6000020DC000020E3
:105DC000DB000020DA000020DE000020DD000020E3
:105DD000FC480278FC480178FC4800780BF062FD32
:105DE000FB48008806F04CFD63E3FA48007802287F
:105DF00046D1F74800880028F6D0F2480278F248E9
:105E00000178F24800780AF0ADFDF148008806F00C
:105E100037FD022003F06AFA012800D14DE3E9487A
:105E20000278E9480178E94800780BF0A9FAE848D7
:105E3000008806F025FD022003F058FA012800D161
:105E40003BE3E0480278E0480178E04800780BF056
:105E5000B1FBDF48008806F013FD022003F046FA8C
:105E6000012800D129E3D7480278D7480178D748DC
:105E700000780BF0B9FCD648008806F001FD18E365
:105E8000D44800780428AFD1D14800880028ABD08E
:105E9000CC480278CC480178CC4800780AF0A4FFBE
:105EA000CB48008806F0ECFC022003F01FFA012822
:105EB00000D102E3C3480278C3480178C3480078A0
:105EC0000BF0EEF8C248008806F0DAFCF1E2C248B6
:105ED0000078022888D1BF48007801286FD1BC48DB
:105EE00000880028CBD0B7480278B7480178B74877
:105EF00000780AF0EDFCB648008806F0C1FC0220EC
:105F000003F0F4F9012800D1D7E2AE480278AE4898
:105F10000178AE4800780AF025FDAD48008806F00B
:105F2000AFFC022003F0E2F9012800D1C5E2A54848
:105F30000278A5480178A54800780AF05DFDA448DC
:105F4000008806F09DFC022003F0D0F9012800D162
:105F5000B3E29C4802789C4801789C4800780AF09B
:105F600095FD9B48008806F08BFC022003F0BEF9EB
:105F7000012800D1A1E29348027893480178934820
:105F800000780AF0CDFD9248008806F079FC0220E6
:105F900003F0ACF9012800D18FE28A4802788A48E0
:105FA00001788A4800780AF019FE8948008806F0CE
:105FB00067FC022003F09AF9012801D17DE22AE072
:105FC0008048027880480178804800780AF064FEB2
:105FD0007F48008806F054FC022003F087F901286E
:105FE00000D16AE2774802787748017877480078EC
:105FF0000AF0B0FE7648008806F042FC002101203D
:1060000008F067FA0021022008F063FA704800885F
:1060100006F036FC4DE26F480078022858D16C48F3
:1060200000880028F6D067480278674801786748FA
:1060300000780AF097FC6648008806F021FC0220F0
:1060400003F054F9012800D137E25E4802785E4837
:1060500001785E4800780AF019FD5D48008806F076
:106060000FFC022003F042F9012800D125E2554837
:10607000027855480178554800780AF0AFFD544839
:10608000008806F0FDFB022003F030F9012800D162
:1060900013E24C4802784C4801784C4800780AF0EA
:1060A00059FE4B48008806F0EBFB022003F01EF976
:1060B000012800D101E20021012008F00AFA0021A4
:1060C000022008F006FA4248008806F0D9FBF0E109
:1060D0004048007804289DD13D480088002899D088
:1060E0003848027838480178384800780AF0CEFC01
:1060F0003748008806F0C4FB022003F0F7F80128B7
:1061000000D1DAE12F4802782F4801782F48007833
:106110000AF020FE2E48008806F0B2FB022003F0B1
:10612000E5F8012800D1C8E10021012008F0D1F9EB
:106130000021022008F0CDF92548008806F0A0FBD8
:10614000B7E126480088032810D125480088254952
:106150000988CDE90010244803881A4802781A48B3
:1061600001781A4800780AF0F3F9A2E11B48008888
:10617000042871D11748007803286ED1114802789D
:1061800011480178114800780BF0EAFB10480088AC
:1061900006F076FB042003F0A9F8012800D18CE179
:1061A0000848027808480178084800780BF0E4FCB9
:1061B0000748008806F064FB042003F097F80128E4
:1061C00014D17AE1DC000020DB000020DA0000209E
:1061D000E8000020DD000020DE000020D6000020C6
:1061E000E4000020E2000020E0000020B448027833
:1061F000B4480178B44800780BF00AFEB348008830
:1062000006F03EFB042003F071F8012800D154E1B0
:10621000AB480278AB480178AB4800780BF05CFFE4
:10622000AA48008806F02CFB042003F05FF8012840
:1062300000D142E1A2480278A2480178A248007841
:106240000CF0AEF8A148008806F01AFB042003F019
:106250004DF8012802D130E1C0E030E098480278E2
:1062600098480178984800780CF0C4F9974800885D
:1062700006F006FB042003F039F8012800D11CE1E8
:106280008F4802788F4801788F4800780CF010FB17
:106290008E48008806F0F4FA042003F027F801285D
:1062A00000D10AE18648027886480178864800785D
:1062B0000CF086FC8548008806F0E2FAF9E0844894
:1062C00000780428FAD17E4802787E4801787E481A
:1062D00000780BF0CBFB7D48008806F0D1FA042053
:1062E00003F004F8012800D1E7E07548027875480A
:1062F0000178754800780BF0D9FC7448008806F0E6
:10630000BFFA042002F0F2FF012800D1D5E06C486A
:1063100002786C4801786C4800780BF02BFE6B48D3
:10632000008806F0ADFA042002F0E0FF012800D159
:10633000C3E06348027863480178634800780BF053
:106340007DFF6248008806F09BFA042002F0CEFF31
:10635000012800D1B1E05A4802785A4801785A48D9
:1063600000780CF0B7F85948008806F089FA042044
:1063700002F0BCFF012800D19FE05148027851484B
:106380000178514800780CF0CFF95048008806F0A9
:1063900077FA042002F0AAFF012800D18DE04848D6
:1063A000027848480178484800780CF045FB474897
:1063B000008806F065FA042002F098FF012800D159
:1063C0007BE03F4802783F4801783F4800780CF076
:1063D000BBFC3E48008806F053FA6AE03D4800885E
:1063E000052866D139480088F0B33948007800F0B4
:1063F000010048B100221146334800780AF05EF8E7
:106400003248008806F03CFA3148007800F002007B
:10641000022809D100222B48017810460AF04EF8D4
:106420002A48008806F02CFA2948007800F0040079
:10643000042809D122480278002108460AF03EF8D3
:106440002248008806F01CFA2148007800F0080075
:1064500008280CD100221B4801781B4800780AF05C
:106460002DF81A48008800E023E006F009FA1848E1
:10647000007800F0100010280AD11148027800219D
:10648000114800780AF01AF81048008806F0F8F968
:106490000F48007800F0200020280AD10848027830
:1064A0000848017800200AF009F80848008806F03A
:1064B000E7F90A2006F0E4F900BFFFF780BA000010
:1064C000DC000020DB000020DA000020E8000020D3
:1064D000DD000020D600002000BFFEE70EB5002141
:1064E0001C4809F06BFFB8B11B4A0021194809F09C
:1064F0004AFE1948827A00F10B011848FDF713FF94
:10650000164815490290D1E90301CDE9000112486E
:106510000EC8002000F024F801210E4809F04EFFBB
:10652000B8B10D4A01210B4809F02DFE0A48827AC4
:1065300000F10B010948FDF7F6FE084806490290F4
:10654000D1E90301CDE9000103480EC8002000F0A5
:1065500007F80EBD00640040A0570020080200208C
:106560000FB470B588B00446129D0295DDE91001A4
:10657000CDE9000104A80DA90EC90FF0C9FA04EB7A
:10658000041000EB8000254901EB8000B0F84E11AB
:1065900004EB041000EB8000204A02EB8000B0F80E
:1065A0004E01401C04EB041202EB82021B4B03EB76
:1065B0008202A2F84E0104EB041000EB80001A46A0
:1065C00002EB8000AC3000EB011004A94EC94EC0B4
:1065D00004EB041000EB8000104901EB8000B0F8E0
:1065E0004E010A2190FBF1F201FB120004EB0411B1
:1065F00001EB8101094A02EB8101A1F84E0104EB94
:10660000041101EB810102EB8101D1F8500105F089
:10661000A3FD08B070BC5DF814FB00004C560020D0
:1066200010B588B0044602200FF074F931490860B3
:1066300005A9002009F0CFFE6946012009F0CBFE34
:106640002D4809F069FC00208DF8180001208DF814
:1066500019008DF81A0000208DF81B008DF81C0021
:106660008DF81D008DF814008DF8150002208DF8AE
:10667000160001208DF8170002200FF04BF91D497C
:106680000860084600684FF47A71B0FBF1F0B0FB87
:10669000F4F19DF81600C01C9DF817201044B1FBC2
:1066A000F0F080B2ADF81E0005A9134809F0D6FC41
:1066B0000020ADF80A00ADF80C000120ADF80E0086
:1066C0000020ADF80000ADF80200ADF80400ADF810
:1066D0000600ADF8080001208DF81000684609F0AA
:1066E00035FC1221044809F04AFD01F019F808B000
:1066F00010BD00001402002000640040F0B5034605
:106700000C4600200025002600212FE05E5C671E5D
:106710008F4216DD4F1CDD5D02110707380E82EA3D
:106720002517DFF850C01CF80770784002110707E2
:10673000380E05F00F0757401CF8077078404F1CC3
:10674000F9B202110707380E82EA2617DFF824C0D3
:106750001CF80770784002110707380E06F00F0783
:1067600057401CF8077078404F1CF9B2A142CDDBAE
:10677000F0BD00008D00002000B587B0002000F0C3
:10678000AFF803200021C201194BCDE90132CDE958
:10679000031004200346174A0090174805F07EFDB9
:1067A00006909DF8180020B906AA14A1042005F04F
:1067B00079FE02F043FC00F0010078B103200021D3
:1067C000C201114BCDE90132CDE903100A20034685
:1067D0000E4A00900E4805F061FD06909DF81800E5
:1067E00020B906AA0BA10A2005F05CFE07B000BD87
:1067F000602700205C2D00202D76000843616E206C
:106800005278205461736B00602D00205C330020AF
:106810004D77000843414E205458205441534B00BB
:1068200010B504464FF486712046FDF7A3FD002005
:1068300005F0F2FBC4F8080110BD30B50246B2F90C
:106840000401002802DC4FF0FF3030BDB2F8000137
:1068500002EB001539CD81E8390002F5807290888D
:10686000401E00B290801088401C10801088C31712
:1068700000EB13731B11A0EB03131380A2F58072BE
:106880000020E2E70FB470B504460025B4F9040116
:10689000102803DB681E70BC5DF814FBB4F804011B
:1068A000401C00B2A4F80401B4F8020104EB00108B
:1068B00005A94EC94EC0B4F80201401CA4F802015B
:1068C000B4F80201C11700EB11710911A0EB01111D
:1068D000A4F80211D4F8080105F03EFC2846DAE7D6
:1068E00010B5044604EB041101EB8101094A02EBE7
:1068F00081004FF4AA71FDF73DFD002005F08CFBEF
:1069000004EB041101EB8101024A02EB8101C1F8A1
:10691000500110BD4C56002010B540F219700FF018
:10692000C7F840F202600FF0C3F84FF4805303221F
:1069300018210A480DF0C4FE4FF4006303224821D9
:1069400006480DF0BDFE0022022114200EF01CFFAF
:106950000022022116200EF017FF10BD0008014092
:1069600010B58EB00446002003907848008820447B
:1069700076490880084600880A2190FBF1F201FB65
:10698000120050B17148008890FBF1F201FB120037
:106990006E490988081A6D4908806C48008864218E
:1069A00090FBF1F201FB120000287DD103A9062023
:1069B00003F0D4FD0398032876D09DF8100020F052
:1069C0000700801C8DF810009DF8100020F03800A2
:1069D00028308DF810004FF48071BDF8100061F37D
:1069E0008F10ADF81000BDF8120020F4F870ADF86B
:1069F00012009DF8130020F002008DF813009DF89E
:106A0000130020F004008DF813009DF8130020F00F
:106A100018008DF813009DF8130020F0E0008DF8A9
:106A200013000620ADF81C0000208DF8140003218F
:106A30008DF815100DA9092003F090FDBDF8340064
:106A4000C1B28DF81610BDF83400010A8DF8171088
:106A50000CA90A2003F082FDBDF83000C1B28DF808
:106A60001810BDF83000010A8DF81910384A127854
:106A700072B3384A1288BDF83430D11A002901DBCC
:106A80000A4600E04A420A2392FBF3F2304B1B789D
:106A90009A4212DC304A1288BDF83030D21A0A23EA
:106AA00092FBF3F0002800E04EE001DB024600E03C
:106AB0004242274B1B789A420ADDBDF83400254933
:106AC0000880BDF83000244908800120234908705F
:106AD00022480078012805D01C48008820490988F0
:106AE000884231DB0020194908801C4908701D4884
:106AF00000789DF8121060F303018DF81210194808
:106B00000088401C174908800888C11700EB1171E4
:106B10000911A0EB0111134A118004980890BDF8E7
:106B20001C00C0B28DF82400BDF81C2005A90DF191
:106B30002500FDF7F8FB042001900B980090002041
:106B400008A90EC906F09CFD0EB010BD6201002020
:106B50005A0100206C0100206E010020700100200D
:106B600058010020600100202DE9FF4104464FF04C
:106B7000FF372068C0F30340B84203D1002004B0BF
:106B8000BDE8F0812068C0F303472068C0F380604F
:106B9000002852D0009820F0806000902088810961
:106BA000009861F38F1000902068C10E009861F387
:106BB000DC6000902078C108009861F3020000902A
:106BC0002068010C009861F3134000902068410E8A
:106BD000009861F3596000902068010D009861F3FE
:106BE000185000902078009960F3C5010091A089A9
:106BF000ADF80C00002504E0201D415D01A84155C1
:106C00006D1CBDF80C00A842F6D867490098486092
:106C100004200872BDF80C008872002505E0201DD4
:106C2000415D61480B3041556D1CBDF80C00A84218
:106C3000F5D85D495D4809F019FB2068C0F3406054
:106C4000002863D12068C0F3045000285EDD20686E
:106C5000C0F3045056490860002056490860564960
:106C600008605648006820F080605449086002219E
:106C70005248006861F38F10504908600846006868
:106C800020F0C05008600846006820F00700086047
:106C90000846006820F4702008600846006820F06C
:106CA000007008600846006820F0F8700860084628
:106CB000006820F038000860002508E03F480068C0
:106CC000E900C840C1B23D48C01D41556D1C042DAE
:106CD000F4D3207939498871364801783748C01D86
:106CE0004155002607E0201D815D681C821933484C
:106CF000C01D8154761CA089B042F4D8A0892D49CA
:106D0000096808442B490860002038E72068C0F370
:106D10004060002845D02848006825490968884215
:106D20003FD22068C0F3045023490968884219D132
:106D3000002509E0201D425D1E4800682844401DD2
:106D40001E49C91D0A546D1CA089A842F2D8A08909
:106D50001849096808441749086017480068401C2A
:106D6000154908601448006811490968884216D11D
:106D70000020124948712088C0F3871008710D481F
:106D80000068401D88640B4801780C48C1720146B8
:106D90008A6C8879C91D07F005FD0120EFE6002007
:106DA000EDE60020EBE600007C34002000640040AB
:106DB000A4000020A0000020A800002090340020A3
:106DC00070B586B0044600262068C0F380600028B5
:106DD00052D0019820F080600190208881090198AC
:106DE00061F38F1001902068C10E019861F3DC609F
:106DF00001902078C108019861F302000190206899
:106E0000010C019861F3134001902068410E019834
:106E100061F3596001902068010D019861F31850E9
:106E200001902078019960F3C5010191A089ADF826
:106E30001000002504E0201D415D02A841556D1C95
:106E4000BDF81000A842F6D83A49019848600420DD
:106E50000872BDF810008872002505E0201D415D14
:106E600034480B3041556D1CBDF81000A842F5D8D0
:106E70003049314809F0FAF9E179207A01EB002034
:106E80002E490880059820F00F00801C0590E179BC
:106E9000207A01EB0020059960F306110591059811
:106EA00020F0800080300590E179207A01EB00200D
:106EB000C108059861F30D200590059820F48040E5
:106EC00000F580400590059820F400400590A079D9
:106ED000059960F310410591059820F4003000F504
:106EE00000300590607A059960F3954105916079CD
:106EF000059960F396510591059820F400000590DE
:106F00000598C0F3004020B10599C1F3834006F015
:106F100049FC0B48008809490988884207D007497D
:106F2000087807F093F8054800880549088030463E
:106F300006B070BD7C34002000640040AE0000202C
:106F4000AC0000202DE9F0410446002500266F1E0C
:106F50002068C0F30340B84202D10020BDE8F081B0
:106F60002068C0F30347207907F070F808480178DB
:106F7000092006F04EFB65792946052006F049FBFD
:106F8000A6793146042006F044FB0120E6E7000024
:106F90009E000020F0B597B004460E4600274C2115
:106FA00004A8FDF7E7F900200090019002900390FB
:106FB0002068C0F38060002854D0009820F08060E2
:106FC000009020888109009861F38F10009020685C
:106FD000C10E009861F3DC6000902078C108009831
:106FE00061F3020000902068010C009861F31340E7
:106FF00000902068410E009861F35960009020686D
:10700000010D009861F3185000902078009960F30A
:10701000C5010091A089ADF80C00002505E0201DF8
:10702000415D01A84155681CC5B2BDF80C00A842DD
:10703000F5DC2F490098486004200872BDF80C0068
:107040008872002506E0201D415D29480B3041551E
:10705000681CC5B2BDF80C00A842F4DC24492548E0
:1070600009F004F9C6F1FF008DF816002068C0F39E
:1070700080608DF815002088C0F387108DF814000B
:10708000A089401D1690002508E0E9002068C8404E
:10709000C1B20DF117004155681CC5B2042DF4DBD7
:1070A000217B0DF117004155052507E0681F211DC3
:1070B000095C0DF117004155681CC5B21698A8422D
:1070C000F4D89DF816000DF11701169A07F06AFB27
:1070D000A07900F0010038B12088C0F3891007289A
:1070E00002D1304606F05EFB384617B0F0BD000016
:1070F0007C34002000640040FEB5044600250021D9
:1071000000910191207800F007062068C0F39310E9
:10711000FE4908602078C0F3C20001280DD008465F
:107120000068012809D008460068F9490968401A32
:10713000012802D901200290FEBDF448006800B386
:10714000F2480068F2490968884205D1F1480078A0
:10715000401CF049087014E0EE48007801280DD179
:10716000EB480068012809D1E8480068202805D1CB
:10717000E8480078401CE749087002E00120E54932
:107180000870E2480068E2490860072E7ED1207846
:10719000C0F3C20001287AD1DC480068012840D140
:1071A000DC48007801283CD12179607941EA00214E
:1071B000A07941EA0041E07941EA0060D6490860DF
:1071C00008460068D549884206D1D548D5490860A7
:1071D000D548D649086003E00020CF490860ABE7F6
:1071E00071B6022001F04CFD01F050FDCD4805685C
:1071F00004E0284601F0F8FF05F50065C94800687D
:10720000CA4909680844A842F3D861B60020C749B2
:1072100008600120BF49087020200290C4490298EC
:107220000860BA48006802280FD1217A607A41EAE2
:107230000020C0490860A07A0104E07A41EA0060B9
:10724000BC4909680843BB490860B0480068042885
:1072500025D8B0480078012821D1AC48006804281E
:1072600001D1AA49086071B6022001F009FD01F0C0
:107270000DFDA6480068401EAA49096801EBC0053B
:10728000A74885420AD3AC48854201E02BE02BE0B9
:1072900004D2227B2946201D02F019F861B69B48D2
:1072A0000068A349096888421DD14FF480709F4946
:1072B0000860012095490860084600689449086004
:1072C0009C48007800F0070030B19A48006801211E
:1072D00001EBD000029003E096480068C0080290DD
:1072E00093490298086076E18848006840B3904866
:1072F000006828B3854800688D49096888421FD214
:1073000082480068401EC5008648006800F580700D
:10731000054483488542E6D387488542E3D27D48C9
:1073200000780128DFD171B6022001F0A9FC01F03C
:10733000ADFC227B2946201D01F0C9FF61B64AE160
:107340007248006840B17A48006828B16F48006808
:1073500077490968884200D0EEE66C480068401E14
:10736000C5007048006800F5807005446C4885428F
:1073700012D3714885420FD26648007801280BD19C
:1073800071B6022001F07CFC01F080FC227B2946D2
:10739000201D01F09CFF61B6642005F071FA002009
:1073A000664908805F48006800F580752EE0574800
:1073B0000068401E5B49096801F5807101EBC0005F
:1073C000217B0844401BB0F5003F08D35B4A4FF4D3
:1073D0000031284601F012FF5849088011E04B485F
:1073E0000068401E4F4A126802F5807202EBC0002E
:1073F000227B1044411B514A284601F0FFFE4F49B1
:107400000880642005F03CFA05F500353F48006827
:10741000401E4449096801F5807101EBC000217BE1
:107420000844A842C3D800204549088002223D48AC
:1074300001681C31424801F03DFF40480088404946
:10744000098888427ED100203C4908800A46FC21F8
:107450003448006801F0D2FE3849088008460088A8
:1074600002903048006800F1FC052D4885422BD37E
:107470003148854228D227480078012824D10021AC
:107480000298CDE900010098CDE900102548006878
:1074900000F1F801042202A801F00CFF9DE80700AA
:1074A0001043CDE9000171B6022001F0E9FB01F0C3
:1074B000EDFB1C48006800F1F8010822684601F065
:1074C00006FF01F0D9FB61B61348006813498842F2
:1074D0006FD171B6022001F0D3FB01F0D7FB164843
:1074E00001F082FE04220F480168183102A801F061
:1074F000E1FE00210298CDE900010098CDE90010DD
:10750000054ADDE90001126810431CE02802002052
:107510002C02002030020020400200200E0A100041
:10752000001002081C02002000CF010020020020F1
:10753000240200203402002000E00308440200205E
:107540004602002036E0CDE90001082223496846C2
:1075500001F0BDFE214D0C35204885420BD31F485C
:107560001C30854207D201210020CDE90010002106
:107570000098CDE90010194D0835184885420ED302
:1075800016481C3085420AD20123DDE90010194358
:10759000CDE9001008222946684601F098FE01F066
:1075A0006BFB61B6642005F06BF94FF0006001F0F1
:1075B0005DFE10E071B601F05FFB61B60020084986
:1075C00008600849086008490860084908600849D7
:1075D00008600849086000BFAEE5000000E003084D
:1075E0004002002034020020280200202402002053
:1075F000200200201C02002010B5FDF78FFB10BDFB
:107600001FB50948006810B101280AD104E09DE8BF
:107610000F0001F0D5FE05E09DE80F0003F0AEFD80
:1076200000E000BF00BF1FBD78000020002004F074
:10763000F3FC0A49086010E010220949002001F01B
:107640009DF8044604F10A0018B9002005490860B5
:1076500003E003480FC8FFF7D3FFEDE784000020E5
:107660006C3400207800002030B588B09DF81020E0
:1076700022F007028DF810209DF8102022F0380229
:1076800028328DF810200023BDF8102063F38F12EC
:10769000ADF81020BDF8122022F4F872ADF81220D7
:1076A0009DF8132022F002028DF813209DF813207C
:1076B00022F004028DF813209DF8132022F0180206
:1076C0008DF813209DF8132022F0E0028DF813208E
:1076D0000822ADF81C2050228DF805204F238DF88C
:1076E000063053238DF807303A238DF808308DF893
:1076F000091004238DF80A3000238DF80B3006237F
:107700008DF80C30049A0092BDF81C20D2B28DF88E
:1077100004209DE83C0080E83C0008B030BD00003B
:1077200000B585B000208DF808008DF809004FF4F1
:107730008060009000208DF80A006946024808F039
:1077400095FD05B000BD0000006400408CB02B48E2
:10775000FFF766F851E02A480068A8B90020034600
:1077600002460146009003A806F046FB0420019063
:1077700006980090002003A90EC905F081FF4FF480
:10778000FA7005F07DF838E01C490BAAD1F8080121
:107790004FF47A6104F06AFC9DF82C00C0B907A987
:1077A0001648FFF74AF878B902E0052005F068F8B6
:1077B000042001900A980090002007A90EC905F046
:1077C0005FFF012819D1F0E700200D49086014E09F
:1077D0009DF82C000A2810D10020034602460721FC
:1077E000009003A806F008FB042001900698009082
:1077F000002003A90EC905F043FFACE76033002069
:107800007800002001460889CB88984203DD08896A
:10781000CB88C01A02E0C8880B89C01A82B2052A38
:1078200003DD0889C880012070470020FCE701467D
:10783000488B0A8B90420BD191F82100142801DB70
:107840000220704791F82100401C81F8210004E0DB
:10785000088B4883002081F821000020F1E7000018
:10786000014604488088884201DA012070470020E0
:10787000FCE700007C000020002007490880074941
:107880000880074908800749088007490880074998
:107890000880074908807047B0000020B20000202F
:1078A000B4000020B6000020B8000020BA0000207C
:1078B000BC0000200348008810B100200149088066
:1078C00070470000EA00002010B514480088032823
:1078D00005D101F0A3FA012801D1FFF7CDFF0F4830
:1078E000008820B100200D4908800D490880002043
:1078F0000C4908700C4908700C4908700C49087054
:107900000C4908700C4908800C4908800C49088013
:107910000C4908800C49088010BD0000D6000020EA
:10792000D8000020DA000020DB000020DC0000206E
:10793000DD000020DE000020E0000020E20000204A
:10794000E4000020E6000020E800002010B5044616
:1079500020460EF067F910BD10B540F204600EF03D
:10796000A7F840F204600EF0A3F840F203600EF0B6
:107970009FF84FF40073022210211A480CF0A0FE69
:107980004FF40070174914310860042302221021BB
:1079900015480CF095FE80230222102112480CF0AD
:1079A0008FFE04201049086180200861012008F042
:1079B00087F9022008F084F9012000F017F802206E
:1079C00000F014F8012000F0B9F8022000F0B6F839
:1079D000FF21012000F0DCF8FF21022000F0D8F8A0
:1079E00010BD0000000C01400010014010B504461D
:1079F000012C50D102205049486105F06CFE042052
:107A00004D49086105F067FE04204B49486105F0C7
:107A100062FE04204849086105F05DFE04204649E5
:107A2000486105F058FE04204349086105F053FE03
:107A300004204149486105F04EFE04203E4908619A
:107A400005F049FE04203C49486105F044FE02204F
:107A50003949086105F03FFE02203749486105F0C9
:107A60003AFE02203449086105F035FE0220324911
:107A7000486105F030FE02202F49086105F02BFE19
:107A800002202D49486105F026FE02202A4908619E
:107A9000042008614FE040202749486105F01BFEA3
:107AA00080202549086105F016FE802022494861A2
:107AB00005F011FE80202049086105F00CFE8020B1
:107AC0001D49486105F007FE80201B49086105F04B
:107AD00002FE80201849486105F0FDFD802016490E
:107AE000086105F0F8FD80201349486105F0F3FDB9
:107AF00040201149086105F0EEFD40200E49486123
:107B000005F0E9FD40200C49086105F0E4FD402046
:107B10000949486105F0DFFD40200749086105F08B
:107B2000DAFD40200449486105F0D5FD40200249B6
:107B300008618020086110BD0010014010B50446A6
:107B4000012C11D105F0C7FD02201049086105F094
:107B5000C2FD04200D49486105F0BDFD05F0BBFDE7
:107B600004200A49086110E005F0B5FD40200749EE
:107B7000086105F0B0FD80200449486105F0ABFDC7
:107B800005F0A9FD80200149086110BD00100140E9
:107B900070B506460D46012E43D102204449486186
:107BA00005F099FD04240BE004204149086105F02B
:107BB00092FD04203E49486105F08DFD601E84B2AF
:107BC000002CF1DC05F087FD042039490861082408
:107BD00017E002203649086105F07DFD05F08000C0
:107BE00018B101203249486102E0012030490861A2
:107BF00002202F49486105F06EFD6806050E601EE3
:107C000084B2002CE5DC02202949086105F063FDFF
:107C100004202749486105F05EFD042024490861DD
:107C200045E040202249486105F055FD04240BE061
:107C300080201F49086105F04EFD80201C494861E5
:107C400005F049FD601E84B2002CF1DC05F043FD17
:107C500080201749086108241AE04020144908616F
:107C600005F039FD05F0800020B14FF400401149C6
:107C7000086004E04FF400400E49091F08604020EE
:107C80000B49486105F027FD6806050E601E84B2A9
:107C9000002CE2DC40200649086105F01CFD802034
:107CA0000349486105F017FD80200149086170BD56
:107CB00000100140140C014010B540F203600DF0BB
:107CC000F7FE40F204600DF0F3FE40F202600DF0AA
:107CD000EFFE40F204600DF0EBFE4FF4C0600DF0DB
:107CE000E7FE01230322482117480CF0E9FC10238A
:107CF0000322194615480CF0E3FC10230322282127
:107D000013480CF0DDFC20230322102110480CF056
:107D1000D7FC042102200CF087FC00221146102021
:107D20000CF05CF800220F210A200DF02DFD102030
:107D30000CF0B0F8102105480CF06EFC202104482E
:107D40000CF068FC10BD0000000C01400008014070
:107D50000010014010B5002004F05EF901490860F0
:107D600010BD0000B00100202DE9F05F04464FF087
:107D70000009CA4625786079864931F81080607814
:107D8000401EC6B2042D01D0072D01D1012000E014
:107D900000208346E07950B97F480068406940F48C
:107DA00080007D49096848614FEAE80807E07A48A1
:107DB0000068406920F48000774909684861207AAA
:107DC00075490968087274480068406920F44030B9
:107DD000714909684861704800684069217A4FF428
:107DE000403202EA014108436B49096848616A4828
:107DF000006800214269042000F0C9FB424642F6B7
:107E000004012E2000F0B2FB304607F06FF9634802
:107E100000F0DAF86248405D624951F820200721FD
:107E20002B2000F0B4FB5E48405D5F490A5C0B21EB
:107E30002B2000F0C0FB5D4810F80B200B21282000
:107E400000F0B9FB5648405D594951F820200C21FB
:107E5000282000F09CFBE079564901EB8000A179D5
:107E600030F811200221272000F080FB524830F822
:107E700016200421272000F079FBE07928B964223C
:107E80000621272000F072FB17E0A07804280AD111
:107E900010220621272000F069FB1022262127202E
:107EA00000F089FB09E020220621272000F05EFB7C
:107EB00028222621272000F07EFB404800EB0610F8
:107EC000E17850F821200821272000F060FB60892C
:107ED00010B941F24100608162892021272000F021
:107EE00045FB37480C210268232000F050FB344842
:107EF000001D30F816200421232000F037FBA07964
:107F000050B1E0792F490A5C0021212000F053FB99
:107F10004FF003094FF0010A05F00F00F02101EACC
:107F20000511084361784FF4402202EA8141084379
:107F3000910001EA095108434FF4003101EA4A4136
:107F4000084321794FF0F86202EA815108436179D0
:107F5000520102EAC16140EA01073A4600211F20AE
:107F600000F015FBA078617808430004E17940EA4D
:107F7000413009490968C860074800680021C268A3
:107F8000082000F004FB422200210D2000F013FB2A
:107F9000BDE8F09F2C680108AC010020C001002062
:107FA000B0670108D0670108E8670108EE670108BB
:107FB000B8670108FC670108086801080C68010837
:107FC000F0670108F867010810B5044622780B2114
:107FD0002A2000F0F0FA00211E20626800F0D7FA93
:107FE00010BD000070B505460021042000F0F7F830
:107FF0000A4900EA010435B124F4FF7405F4FF7066
:10800000401C044301E024F0010405480068446179
:1080100022460021042000F0BAFA70BDFFFF47F0AD
:10802000AC01002070B500210E2000F0D8F8054604
:1080300000F032FB0446002211460E2000F0A7FAA1
:10804000402200210D2000F0B6FA0A4A00210F203C
:1080500000F09DFA0BF088FE2A4600210E2000F069
:1080600096FA204600F00FFB002003490968887645
:1080700070BD0000F8FF2704AC0100200148006833
:1080800000687047AC0100202DE9F041044600254E
:1080900000270020464909684874454909688876E0
:1080A0004349096808834249096888624049096868
:1080B000C8623F49096808633D490968486300F0A0
:1080C000AFF83C49884202D08817BDE8F08100F043
:1080D000E9F9002007F023F804220021242000F011
:1080E0006AFA1E2007F0A6F885B2280A3049096806
:1080F0004872042007F09EF80746F8B260B10222E9
:1081000012212D2000F057FA29480068008B40F416
:108110008050274909680883062007F08BF8244916
:1081200009680860072007F085F821490968486058
:1081300005F01F001E49096808741D480068007C8E
:1081400018B910201A490968087419490968087C87
:1081500000F09CF904F0010050B107F05AF81448FF
:108160000068008B40F400601149096808830DE045
:108170000521362000F020F806464FF6FF50064055
:1081800032460521362000F0F1F900BF012006F04B
:10819000C6FF00220A212C2000F00DFA0021042045
:1081A00000F01DF802490968486100208DE70000D1
:1081B000AC0100203001CADEF8B504460D460026A9
:1081C000A9B2A0B26B46022200F030F89DF8000080
:1081D0009DF8011000EB012086B23046F8BDF8B5DD
:1081E00005460E460027B1B2A8B26B46042200F045
:1081F0001DF8032404E01DF8040000EB0727641EAB
:10820000002CF8DA3846F8BD38B504460D46A9B258
:10821000A0B26B46012200F009F89DF8000038BDBD
:1082200010B500210846FFF7DAFF10BD2DE9F8432D
:1082300006460C461746984600252CB9F2B2284649
:108240006D1C0DF800201BE0F0B240F04002284603
:108250006D1C0DF800207F2C05DCE2B228466D1C59
:108260000DF800200CE0E0B240F0800228466D1CC2
:108270000DF80020C4F3C71228466D1C0DF800202D
:10828000A8B243463A46694604F086FFBDE8F88343
:1082900070B504460D46164623462A46314611203F
:1082A000FFF7C4FF70BD10B5044623460522002128
:1082B0001520FFF7BBFF10BD10B50446234605226D
:1082C00000211720FFF7B2FF10BD70B5044604F07F
:1082D000040008B90BF048FD4FF4807504F001006C
:1082E00008B145F400752A4600210D2000F03EF942
:1082F00004F00100A8B103210F20FFF785FF064617
:1083000006F0080068B1FFF78DFE04F0020028B9FE
:108310004FF4807200210D2000F028F94FF0FF305B
:1083200070BD0020FCE710B5E0220321362000F0EC
:1083300042F9F0220321362000F03DF910BD10B5BE
:10834000044622460021032000F010F910BD000071
:1083500070B5054600210420FFF741FF074900EAF8
:10836000010415B144F0005401E024F00054224609
:108370000021042000F00BF970BD0000FFFF47F062
:1083800010B50446224601210A2000F000F910BD74
:1083900010B50446234608220021012000F015F9FB
:1083A00010BD2DE9F04104460E4600F075F9074670
:1083B00000210E20FFF713FF05460EB1254300E014
:1083C000A5432A4600210E2000F0E1F8384600F0CF
:1083D0005AF9BDE8F08110B5044622460221032077
:1083E00000F0C4F810BD70B5054600211A20FFF753
:1083F000F6FE04466FF31304C5F31300044322464C
:1084000000211A2000F0C3F870BD10B504462246C2
:1084100041F604012E2000F0A9F810BD70B5044605
:1084200003210420FFF7F0FE0546002C14DD224650
:1084300000210C2000F09AF845F010050E48006865
:10844000406940F080500C49096848612A46032180
:10845000042000F0B0F80EE025F010050648006892
:10846000406920F080500449096848612A46032188
:10847000042000F0A0F870BDAC01002010B5044647
:1084800022460021182000F071F810BD70B5044696
:1084900004F01F0040F060052A460E212B2000F05A
:1084A0008AF870BD10B507F0E5FB002211462C20BC
:1084B00000F05CF8002206212C2000F07CF806F089
:1084C000D1FE00220321362000F075F80120FFF7CD
:1084D0003DFAF0220321362000F06DF80020024919
:1084E0000968887610BD0000AC0100202DE9F0413C
:1084F000044600260025002704F0020048B180252C
:108500002A4600210D2000F056F80120164909687E
:10851000887604F00100E0B145F006052A46002106
:108520000D2000F048F803210F20FFF745FE074615
:1085300007F4816008B9002612E040252A46002190
:108540000D2000F038F80020074909688876461E9B
:1085500006E045F002052A4600210D2000F02BF828
:108560003046BDE8F0810000AC010020F8B50546BA
:108570000E461446E0B28DF8000020128DF801007E
:10858000B1B2A8B26B46022200F01FF8F8BDF8B5F0
:1085900006460F461446002504E0E0B20DF805003B
:1085A000240A6D1C042DF8DBB9B2B0B26B4604226C
:1085B00000F00BF8F8BD37B504460D46A9B2A0B2DD
:1085C00002AB012200F001F83EBD2DE9F84306465A
:1085D0000C461746984600253CB9F0B240F08002A0
:1085E00028466D1C0DF800201BE0F0B240F0C002E0
:1085F00028466D1C0DF800207F2C05DCE2B22846D1
:108600006D1C0DF800200CE0E0B240F0800228461E
:108610006D1C0DF80020C4F3C71228466D1C0DF820
:108620000020A8B243463A46694606F025FDBDE85B
:10863000F88370B504460E4615462819B0F5806FCC
:1086400007DCA21E334629460920FFF7BEFF0020A3
:1086500070BD4FF0FF30FBE72DE9F04104460D46B9
:10866000164607480068C068204340EA855040EA43
:10867000C6373A4600210820FFF789FFBDE8F081A0
:10868000AC010020704710B5044624B100220F2130
:108690000A200DF079F810BD10B5102000F0BCFADA
:1086A000044614B10A200DF063F8204610BD000006
:1086B00030B504460D462A462146024800F064F9CA
:1086C00030BD0000782500202DE9F041044600204F
:1086D0000DF020F907460948B7FBF0F6002508E041
:1086E0004FF0000800BF404608F10108B042FAD33D
:1086F0006D1CA542F4D3BDE8F081000040420F009C
:108700002DE9F04107464FF00008002400261A48E2
:10871000D0F868510DB94FF0010807E028680088CB
:10872000B84201D12C4603E02E466D68002DF5D1EC
:1087300000BFE4B12068827E0189384605F0EFFD74
:108740005EB90D496068C1F868010846D0F86C014F
:1087500060600846C0F86C410BE0606870600648D5
:10876000D0F86C0160600448C0F86C4101E04FF043
:1087700001084046BDE8F08160230020F8B50446BA
:108780000D46164604EB041202EB82022E4B03EB5D
:108790008202518804EB041202EB820203EB820294
:1087A000D2F850016A4603F061FC9DF800000A28E7
:1087B00001D14042F8BD9DF80000E0BB04EB04107D
:1087C00000EB8000204901EB8000B0F84C1104EB75
:1087D000041000EB80001C4A02EB8000B0F84C0152
:1087E000401C04EB041202EB8202174B03EB8202E3
:1087F000A2F84C0104EB041000EB80001A4602EBD7
:108800008000AC3000EB01130FCB85E80F0004EBC8
:10881000041000EB80000C4901EB8000B0F84C0123
:1088200009280BDD002004EB041101EB8101064A4D
:1088300002EB810100E003E0A1F84C010020B9E760
:108840006FF00A00B6E700004C56002010B500207B
:108850002949086040F202600DF02AF940F20260F6
:108860000DF026F940F204600DF022F904230222F3
:10887000482122480BF024FF02231A4648211F48B2
:108880000BF01EFF0123022248211C480BF018FFA9
:108890000823022248211A480BF012FF0024164830
:1088A000006840F0020014490860022113480BF0F0
:1088B00065FF0446012C05D10F48006840F0010017
:1088C0000D49086001210D480BF058FF0446012CAA
:1088D00005D10948006840F00400074908600821F4
:1088E00007480BF04BFF04462CB90348006840F0E2
:1088F00008000149086010BD000000200008014088
:108900000010014070B5034600250026187F0A2894
:108910000EDA002404E0981C30F814000544641CAE
:10892000187FA042F7DC187FB5FBF0F0D8821EE07C
:1089300000240BE0D87FA04207D093F82000A0428B
:1089400003D0981C30F814000544641C187FA04222
:10895000F0DCD87F93F82010884201D0022000E09C
:1089600001200646187F801BB5FBF0F0D882184620
:1089700002F0A4FB70BD70B504460D4626212046CA
:10898000FBF7F8FC258070BD41B95368C0F8CC31C5
:10899000D0F8D0315360C0F8D02106E053684B6066
:1089A000D0F8D0315360C0F8D021704770B504467C
:1089B0004FF4BE712046FBF7DDFC002512E004F504
:1089C000BE70691C00EBC10100EBC500416005EB06
:1089D000450000EB051004EB400104F5BE7040F8C3
:1089E00035106D1C092DEADB0021C4F8C81104F50F
:1089F000AB704FF4E27108512630C4F8D00100206A
:108A0000C4F8CC0170BD10B5FFF7A4F9FFF754F915
:108A100004F0F8FB10BD000010B5044604F026FE7B
:108A20000848FFF7A1F92088FFF7EFFC6088FFF7FF
:108A300025FDA088FFF7CFFC04F10800FFF7A8FC94
:108A400010BD0000B4010020002003494880084602
:108A50008068401C886070471025002070B504466F
:108A60000D46002221462846FFF7E3FD01220021A2
:108A70002846FFF7F1FD70BD70B592B00026FBF7F8
:108A800073FB064603F06EFA3046FBF771FB0420D9
:108A90000BF098F90546002D5AD004200BF08CF904
:108AA0002D492E4804F074FC0446002C50D12A486D
:108AB000007803284CDD28480078C01EC0B28DF82D
:108AC0000400264800788DF8050000BF06E0234921
:108AD000601C095C0DF106000155641C9DF8040042
:108AE000A04201D9402CF2D31B480078801E1B49BC
:108AF000085C8DF8460018480078401E095C8DF827
:108B0000471017480068322822D216490A680968B7
:108B1000491C144B196002EB0211134A02EB81004D
:108B2000442201A9FBF7FFFB0E4800683221B0FB8D
:108B3000F1F201FB12000B49086009480068401C73
:108B4000074908600948006810B108480068804774
:108B500003F01AFA12B070BDBC020020486B00206E
:108B6000C8020020C0020020506C0020D00200206B
:108B700070B50025FBF7F8FA054603F0F3F928462F
:108B8000FBF7F6FA08200BF01DF90446F4B1114882
:108B90000068012805D11049086002200D490860CD
:108BA00011E00C48006802280DD13B2004F033FC92
:108BB000064606F0800028B13A2004F0DBFC3420A1
:108BC00004F0D8FC00BF08200BF0F6F803F0DCF945
:108BD00070BD0000CC0200208C02002010B503F014
:108BE000C1F9102000F03BFA03F0CEF910BD0000EF
:108BF00010B503F0B7F94FF480700BF051F910B1D4
:108C0000FF20044908704FF480700BF043F903F023
:108C1000BBF910BDF401002070B504460025002604
:108C200020460BF03DF906460EB1012500E0002577
:108C3000284670BD02480078401C01490870704702
:108C40000C00002010B54FF47A7003F019FE10BD2F
:108C500005480078002805DD03480078401E0249D9
:108C6000087000E000BF70470C00002010B50446FB
:108C700020460BF09DF910BD10B50BF083F910BD27
:108C800010B5044620460BF083FA10BD10B50BF06A
:108C900001FA10BD70B502460B460020B2F9004043
:108CA000B2F90050002100BF10E032F91160A64275
:108CB00001DD32F9114032F91160AE4201DA32F9C8
:108CC000115032F9116030444E1CF1B29942ECDB84
:108CD000061B701B70BD2DE9F35F884600BF0021A5
:108CE000C8F80010C8F80410894615E0009810F87C
:108CF000096000274FEAC90234463D46204629460E
:108D0000D8E900ABFBF700FB1AEB00004BEB010BC3
:108D1000C8E9000B09F10109B9F1050FE6D3BDE877
:108D2000FC9F70B50146002005E00A54140A44EA8D
:108D300003621B0A401C0528F7DB70BDF0B58BB041
:108D400005460C46164611488088A04202DA0120EA
:108D50000BB0F0BDFFF76EFF04AB3246214628464C
:108D600002F0F4F907A80FC88DE80F00084804A91D
:108D70000EC90CF0AAFD00F0CDF8074601232246EB
:108D80002946009606F0BAF80020E1E77C000020B2
:108D90006023002006480188142091FBF0F200FBBC
:108DA00012104FF4E172504300F5967070470000C6
:108DB0001025002070B503460C4600210BB141F090
:108DC00001010CB141F002010AB141F0040100209F
:108DD0000BE00D4601EBD5767610A1EB4606064476
:108DE000F0B201EBD576C6F347010029F1D170BD91
:108DF00009480088012800D17047074800881128D9
:108E000000D1F9E7044800884FF6FF71884201D18C
:108E1000FF20F1E70020EFE7EA000020014800888A
:108E200070470000D80000200148D0F8CC017047FE
:108E30007825002070B505460E462148D0F8CC4173
:108E400006E020680088A84201D1204670BD646811
:108E5000002CF6D11A48D0F8D001A8B11848D0F8A3
:108E6000D041D0F8D00140681549C1F8D00108467A
:108E7000D0F8CC0160600846C0F8CC412946206893
:108E8000FFF779FD2046E1E70E48406BB0B10D4891
:108E9000406BC08AB04211DD0A49496B0888FFF770
:108EA0002FFC0849486B2946FFF765FD0549486BCB
:108EB000314605F0B5FF0020024948630020C5E7B0
:108EC000782500201025002002460B460021074887
:108ED000D0F8CC1106E008680088904201D108461D
:108EE000704749680029F6D10020F9E7782500206D
:108EF00002460748D0F8CC1106E008680088904286
:108F000001D10846704749680029F6D10020F9E7E9
:108F10007825002001480078704700000C000020F0
:108F2000F0B50146087F00283ADD087F032805DAFE
:108F3000487F401E8F1C37F81000F0BD487FC01DD1
:108F40000A2790FBF7FC07FB1C0083B2881C30F853
:108F5000135030F813602C4601221BE09F18881C28
:108F600030F81700B04204DD9F18881C30F81760F5
:108F700009E09F18881C30F81700A84203DA9F18F0
:108F8000881C30F817509F18881C30F817000444CC
:108F9000501C82B2032AE1DB601B841BA0B2CCE729
:108FA00091F82300012801D1888CC6E74FF6FF70A5
:108FB000C3E710B504F0DEF910BD7CB500210C4606
:108FC0000D466846FFF76FF9042607E0280240EADD
:108FD000146524021DF806000443761E002EF5DAFF
:108FE000204629467CBD7CB500210C460D466846CE
:108FF000FFF762F9042607E0280240EA146524021C
:109000001DF806000443761E002EF5DA2046294698
:109010007CBD000001480088704700007C000020F3
:109020000249C978642211FB02F070477C000020DD
:1090300001480088704700009E0000200148006839
:1090400070470000000000200146002008607047C3
:1090500010B50446102C01D10AF094FD10BD10B5D6
:10906000044620460AF01CFF28B120460AF012FFF1
:109070002046FFF7EDFF10BD02480068401C014983
:10908000086070470400002010B54FF440700CF0E9
:10909000DDFB0CF02BFF10BD2DE9F047074688469D
:1090A00016464FF0000A3C46AFF300808146454625
:1090B00017B1B8F1000F04D14FF0010A5046BDE8D6
:1090C000F087012D02D120780CF014FE1FE0022160
:1090D00011480CF0EDFD78B1012D06D920780CF087
:1090E00009FE641C681E85B211E020780CF002FEB7
:1090F000641C681E85B20AE0AFF30080A0EB090093
:10910000B04201D3701C00B90EB94FF0030A002D14
:10911000DDD15046D3E70000003001402DE9F84F83
:1091200080468A4691461F46002000904446564697
:1091300009F0FF05AFF300808346B8F1000F02D0BD
:10914000B9F1000F04D1012000900098BDE8F88F1C
:10915000012D03D120780CF0CDFD307023E00221E9
:1091600013480CF0A5FD98B1012D08D920780CF01A
:10917000C1FD3070641C761C681EC5B213E02078F7
:109180000CF0B8FD3070641C761C681EC5B20AE095
:10919000AFF30080A0EB0B00B84201D3781C00B9FC
:1091A0000FB903200090002DD9D10098CEE7000020
:1091B0000030014000BFFEE738B50446A088FA3011
:1091C000A080FFF72DFFA18888420CDCFFF7A2FEEC
:1091D0000546A07E0090228921880123284605F0BB
:1091E0008DFE0020A08038BD70B50446002504F235
:1091F000FF71204600F086F8284670BD2DE9F04743
:1092000080460C4691460026B9F800700025C246FB
:1092100023E0802C01D9802000E0204685B22A4638
:109220005146104800F07AF8AA4400260CE00D4898
:10923000805D80EA2720C0B20B4931F8100080EA37
:10924000072087B2701C86B2AE42F0DBA54201D087
:10925000803C02E03846BDE8F087002CD9D10020E0
:10926000F9E70000C8590020CC76010801460E4AF3
:1092700008681040B0F1005F14D1012080F313881A
:1092800000BF00BFBFF34F8F0848006800F4E060E4
:10929000074A1043001D054A1060BFF34F8F00BFFF
:1092A00000BFFEE7704700000000FE2F0CED00E05D
:1092B0000000FA05F0B504460D4616460027324672
:1092C0002946204600F02AF807463846F0BD2DE929
:1092D000F04104460D4616460027324629462046F0
:1092E00000F032F807463846BDE8F08101460448F0
:1092F0000088884201D0012070470020FCE7000070
:10930000D600002070B504460D4604E02046FFF765
:10931000ADFC04F50064AC42F8D970BD10B503464D
:109320000C46002100BF0BE0501A042804DB6058F3
:109330005850C81C81B201E0605C5854481C81B28E
:109340009142F1DB012010BD2DE9F84305460E46A0
:1093500014460027B9462046E11704EB91718910A5
:10936000A4EB8101CFB2E11704EB9171C1F38F0936
:109370004FF000080EE0304629680AF0ADFE10B943
:10938000361D2D1D02E00220BDE8F88308F1010022
:109390001FFA80F8C845EEDB87B1FF22042168463A
:1093A000FAF7E1FF3A4629466846FAF7BCFF30462D
:1093B00000990AF091FE08B90220E5E70020E3E7F2
:1093C0001FB5ACB02C9807902C980E909DF8B40067
:1093D000ADF84400002405E00DF1B500015D0FA8D3
:1093E0000155641CBDF84400A042F5D80798C0F3AD
:1093F000C16000287ED1FFF721FE00F00100B8B166
:109400000798C0F38910032812D1079800F00700CD
:1094100007280DD1FE48DDF8B5100160DDF8B91060
:1094200041600120FB490860FB48006802F094FE9F
:10943000FFF704FE00F0040004286ED1079800F046
:1094400007000528F9D10798C0F3891008287DD0B6
:1094500007DC08287BD2DFE800F07A38617A8DB328
:109460007AD940F20512811A904271D006DC0A289E
:109470006FD0A0F20110002869D106E0012969D05F
:10948000A1F2F9210029F7D10CE29DF8B40020B136
:109490009DF8B400082800D025E20020009007982D
:1094A000C0F3C202002340F2011103A804F082F9C4
:1094B0000420019006980090002003A90EC904F032
:1094C000DFF80020D54908800DE29DF8B400082897
:1094D00000D008E20220169016A9002001F03EF804
:1094E0000DF1B501002000F0D3FFA8B100200090DD
:1094F000079800E0FBE3C0F3C2020DF1B5030121C0
:1095000003A804F057F90420019006980090002069
:1095100003A90EC904F0B4F8E5E1E5E19DF8B40053
:1095200020B19DF8B400082800D0DCE10DF1B501B0
:10953000052000F0ADFFC8B1002000900798C0F3EF
:10954000C2020DF1B503032103A804E088E0C9E1DC
:109550003FE10DE186E104F02DF904200190069829
:109560000090002003A90EC904F08AF80020AB493E
:109570000880B8E19DF8B400062800D0B3E10220CD
:10958000169016A9002000F0E9FF0DF1B7010120A7
:1095900000F07EFF98B1002000900798C0F3C2024F
:1095A0000DF1B503042103A804F004F9042001908F
:1095B00006980090002003A90EC904F061F892E11A
:1095C0009DF8B40020B19DF8B400082800D08AE1CD
:1095D0000DF1B701062000F05BFF98B1002000906C
:1095E0000798C0F3C2020DF1B503062103A804F0E9
:1095F000E1F80420019006980090002003A90EC90C
:1096000004F03EF80020854908806CE19DF8B40024
:10961000082800D067E10220169016A9002000F06B
:109620009DFF0DF1B500FBF793FB0DF1B501022095
:1096300000F02EFF98B1002000900798C0F3C202FE
:109640000DF1B503072103A804F0B4F8042001903C
:1096500006980090002003A90EC904F011F842E119
:109660009DF8B40020B19DF8B400082800D03AE17C
:1096700008A9062000F00CFF01210AA84171002072
:1096800009902FE000210AA88171C1710172417215
:10969000BDF82400C1B20AA88172BDF82400010AF5
:1096A0000AA8C1720BA9072000F0F2FE90B10020B9
:1096B00000900798C0F3C2020BAB092103A804F085
:1096C00079F80420019006980090002003A90EC9A3
:1096D00003F0D6FF0A2003F0D3F8BDF82400401CA5
:1096E00080B20990BDF82000BDF824108842C9DC82
:1096F00002210AA84171002009902FE000210AA848
:109700008171C17101724172BDF82400C1B20AA811
:109710008172BDF82400010A0AA8C1720BA90720B2
:1097200000F0B6FE90B1002000900798C0F3C2028E
:109730000BAB092103A804F03DF804200190069822
:109740000090002003A90EC903F09AFF0A2003F03D
:1097500097F8BDF82400401C80B20990BDF82200A3
:10976000BDF824108842C9DC00202C490880BAE0EA
:109770009DF8B400022800D0B5E00220169016A98A
:10978000002000F0EBFE2CA88079012800D0AAE090
:109790000021042000F07CFED0B10020009007984A
:1097A000C0F3C2020DF1B5030A2103A804F002F8C8
:1097B0000420019006980090002003A90EC903F030
:1097C0005FFF0A2003F05CF84FF00060FFF74EFDEA
:1097D00089E09DF8B400082803D02CA8C07A00B115
:1097E00081E02CA88079099009A9012000F0B6FE3B
:1097F0002CA8C07909902CA8007ABDF8241041EA61
:1098000000200990BDF8240040F6B831884207E0F6
:109810007C000020780000208400002062010020ED
:1098200001DA0846099009A9022000F097FEBDF868
:109830002400FB4908800020FA490880009007981E
:10984000C0F3C202002340F2051103A803F0B2FFE7
:109850000420019006980090002003A90EC903F08F
:109860000FFF40E09DF8B40020B19DF8B400082837
:1098700000D038E0002000900798C0F3C202002317
:1098800040F2071103A803F095FF04200190069809
:109890000090002003A90EC903F0F2FE0020E24967
:1098A000088020E09DF8B40020B19DF8B40008289D
:1098B00000D018E0002000900798C0F3C2020023F7
:1098C00040F2FF3103A803F075FF042001900698D1
:1098D0000090002003A90EC903F0D2FE0020D24957
:1098E000088000E000BF00BF40F207112C988842BA
:1098F0007ED19DF8B40005287AD1C820CB490860F4
:1099000000F06AFC002004F003FB9DF8B50001287C
:109910000CD12CA88079012808D19DF8B500C44944
:1099200008802CA88079C34908800EE39DF8B50013
:10993000FE280AD12CA88079012806D1FE20BD4935
:1099400008800020BA490880FFE29DF8B500FD2894
:109950000BD12CA88079012807D1FD20B5490880BA
:109960004FF6FF70B2490880EFE29DF8B500FC2881
:109970000AD12CA88079012806D1FC20AD490880A5
:109980000020AB490880E0E22CA88079102813D091
:109990002CA8807911280FD02CA8807912280BD000
:1099A0002CA88079212807D02CA88079222803D0E0
:1099B0002CA88079232822D12CA880799D49088061
:1099C0002CA8C07900EB800040009B4908802CA89F
:1099D000C07900EB80004000984908802CA8007AEC
:1099E00000EB80004000964908802CA8007A00E037
:1099F00035E000EB800040009249088002E0002042
:109A00008C4908809DF8B500112803D09DF8B50059
:109A1000012820D19DF8B500854908802CA8C0797F
:109A200000EB80004000844908802CA8C07900EB3E
:109A300080004000814908802CA8007A00EB80005B
:109A400040007F4908802CA8007A00EB800040008D
:109A50007C49088079E200207549088075E240F26F
:109A600047112C9888427DD19DF8B400052879D102
:109A7000C8206E49086000F0AFFB002004F048FAEF
:109A80009DF8B50001280CD12CA88079022808D1B6
:109A90009DF8B500664908802CA880796549088042
:109AA00053E29DF8B50001280CD12CA88079032839
:109AB00008D19DF8B5005E4908802CA880795D49E1
:109AC000088042E22CA88079102813D02CA8807935
:109AD00011280FD02CA8807912280BD02CA88079BF
